:100000000C947C000C94A4000C94A4000C94A40008
:100010000C94A4000C94A4000C94A4000C94A400D0
:100020000C94A4000C94A4000C94A4000C94A400C0
:100030000C94A4000C94A4000C94A4000C94A400B0
:100040000C9460030C94A4000C94D0030C94AA03A9
:100050000C94A4000C94A4000C94A4000C94A40090
:100060000C94A4000C94A4005030332052656CC34F
:10007000A90000000000250028002B00000000005F
:10008000240027002A000000000023002600290089
:10009000040404040404040402020202020203032E
:1000A0000303030301020408102040800102040836
:1000B00010200102040810200000000800020100C6
:1000C00000030407000000000000000050756C737E
:1000D00061646F72204F70746F636F706C61646FD6
:1000E00000424F54C3934E203200424F54C3934EAC
:1000F00020310000B004E10611241FBECFEFD8E08C
:10010000DEBFCDBF22E0AAE9B1E001C01D92A43A52
:10011000B207E1F711E0A0E0B1E0EAEBF2E102C0E2
:1001200005900D92AA39B107D9F710E0CBE7D0E0DE
:1001300004C02197FE010E945807CA37D107C9F7AA
:100140000E9469050C9450090C940000833081F0E2
:1001500028F4813099F08230A9F008958730A9F011
:100160008830C9F08430B1F4809180008F7D03C065
:10017000809180008F7780938000089584B58F7779
:1001800084BD089584B58F7DFBCF8091B0008F77BB
:100190008093B00008958091B0008F7DF9CFCF9308
:1001A000DF93282F30E0F901E854FF4F8491F901E3
:1001B000EC55FF4FD491F901E057FF4FC491CC2388
:1001C000A1F081110E94A600EC2FF0E0EE0FFF1FBE
:1001D000EA57FF4FA591B491EC91ED2381E090E0B7
:1001E00009F480E0DF91CF91089580E090E0FACFAC
:1001F000AF92BF92CF92DF92EF92FF920F931F9335
:10020000CF93DF936C017B018B01040F151FEB0172
:100210005E01AE18BF08C017D10759F06991D60129
:10022000ED91FC910190F081E02DC6010995892B9B
:1002300079F7C501DF91CF911F910F91FF90EF905A
:10024000DF90CF90BF90AF900895FC01538D448D07
:10025000252F30E0842F90E0821B930B541710F071
:10026000CF96089501970895FC01918D828D98177E
:1002700061F0A28DAE0FBF2FB11D5D968C91928D56
:100280009F5F9F73928F90E008958FEF9FEF089587
:10029000FC01918D828D981731F0828DE80FF11D50
:1002A000858D90E008958FEF9FEF0895FC01918D6B
:1002B000228D892F90E0805C9F4F821B91098F7364
:1002C0009927089589EA91E00E94560121E0892B3F
:1002D00009F420E0822F089580E090E0892B29F036
:1002E0000E94620181110C9400000895FC01A48D0C
:1002F000A80FB92FB11DA35ABF4F2C91848D90E048
:1003000001968F739927848FA689B7892C93A0892A
:10031000B1898C91837080648C93938D848D9813B4
:1003200006C00288F389E02D80818F7D8083089547
:10033000EF92FF920F931F93CF93DF93EC0181E035
:10034000888F9B8D8C8D98131AC0E889F9898081DC
:1003500085FF15C09FB7F894EE89FF896083E8890F
:10036000F98980818370806480839FBF81E090E001
:10037000DF91CF911F910F91FF90EF900895F62E8E
:100380000B8D10E00F5F1F4F0F731127E02E8C8D28
:100390008E110CC00FB607FCFACFE889F98980816D
:1003A00085FFF5CFCE010E947601F1CFEB8DEC0FEA
:1003B000FD2FF11DE35AFF4FF0829FB7F8940B8F8A
:1003C000EA89FB8980818062CFCFCF93DF93EC01F4
:1003D000888D8823B9F0AA89BB89E889F9898C912D
:1003E00085FD03C0808186FD0DC00FB607FCF7CFE9
:1003F0008C9185FFF2CF808185FFEDCFCE010E94E9
:100400007601E9CFDF91CF910895CF93DF93FC017F
:100410002581222391F1EC0186819781009729F0B3
:100420000197A9F090E080E003C080810E94CF0096
:1004300029813A812817390701F19A838983E88D48
:10044000F98D3097D1F0CE01DF91CF910994808161
:100450008E3008F08E508770806480937C0080918D
:100460007A00806480937A0080917A0086FDFCCFC8
:100470008091780090917900DBCFDF91CF91089542
:100480008EE492E00E94050288E692E00E94050256
:1004900082E892E00C940502FB0101900020E9F74C
:1004A0003197AF01461B570BDC01ED91FC910280A7
:1004B000F381E02D09940F931F93CF93DF93EC0109
:1004C0000E944C028C0168E171E0CE010E944C0256
:1004D000800F911FDF91CF911F910F9108950F937E
:1004E0001F93CF93DF938C01EB0189EA91E00E9487
:1004F0005B02F80180819181009739F0BE01DF91A4
:10050000CF911F910F910C945B02DF91CF911F91BE
:100510000F910895EF92FF920F931F93CF93DF9364
:10052000EC017B010E811F8184E090E00E945E0758
:100530009F838E83892B29F46BE171E0CE010E94A9
:100540006F02EE81FF8113821282F182E0828C8140
:100550009D81892B71F4FD83EC838A819B810196B7
:100560009B838A83DF91CF911F910F91FF90EF9032
:100570000895D8011396FC93EE931297EECFAF92A5
:10058000BF92DF92EF92FF920F931F93CF93DF936F
:10059000EC012B813C8189819A8128173907E9F484
:1005A0004E855F856A857B8589EA91E00E94F80027
:1005B0006CE471E089EA91E00E944C02888599859B
:1005C000892B09F05AC081E090E09987888760E61E
:1005D00071E089EA91E00E945B022B813C81898174
:1005E0009A812817390709F03EC008851985EE243D
:1005F000E3940115110509F4E12CEC89FD89A08033
:10060000B180EF2B31F467E671E0CE0140960E9495
:100610006F02F5018181E81631F1208130E0F901A6
:10062000E854FF4F8491F901EC55FF4FF490F90124
:10063000E057FF4FD490DD20A1F081110E94A60069
:10064000ED2DF0E0EE0FFF1FEE58FF4FA591B49196
:100650008FB7F894EC91012BA9F4F094FE22FC9250
:100660008FBFF501E182DF91CF911F910F91FF9034
:10067000EF90DF90BF90AF9008951986188663E6DB
:1006800071E0A7CFFE2AEBCF0F931F93CF93DF9399
:10069000EC018C819D81009769F0FC01028113813E
:1006A0000E94FA071D830C838A819B8101979B839B
:1006B0008A83EFCF81E0DF91CF911F910F91089551
:1006C0001F920F920FB60F9211242F933F938F9387
:1006D0009F93AF93BF938091A5019091A601A091A4
:1006E000A701B091A8013091A40123E0230F2D3779
:1006F00058F50196A11DB11D2093A4018093A50179
:100700009093A601A093A701B093A8018091A001A6
:100710009091A101A091A201B091A3010196A11D08
:10072000B11D8093A0019093A101A093A201B09369
:10073000A301BF91AF919F918F913F912F910F9006
:100740000FBE0F901F90189526E8230F0296A11D4B
:10075000B11DD2CF1F920F920FB60F9211242F937B
:100760003F934F935F936F937F938F939F93AF9339
:10077000BF93EF93FF9389EA91E00E947601FF9186
:10078000EF91BF91AF919F918F917F916F915F9109
:100790004F913F912F910F900FBE0F901F90189582
:1007A0001F920F920FB60F9211242F938F939F9346
:1007B000EF93FF93E091B901F091BA018081E0914C
:1007C000BF01F091C00182FD1BC090818091C201E8
:1007D0008F5F8F732091C301821741F0E091C201B6
:1007E000F0E0E755FE4F958F8093C201FF91EF91A6
:1007F0009F918F912F910F900FBE0F901F90189582
:100800008081F4CFCF93DF9390E0FC01EC55FF4F54
:10081000249180579F4FFC0184918823D1F090E070
:10082000880F991FFC01E458FF4FA591B491FC017A
:10083000EE58FF4FC591D49161110EC09FB7F89447
:100840008C91E22FE0958E238C932881E223E8831C
:100850009FBFDF91CF9108958FB7F894EC91E22B71
:10086000EC938FBFF6CF0F931F93CF93DF93EC01E1
:1008700088819981009759F02A813B812617370793
:1008800030F081E0DF91CF911F910F9108958B019E
:100890006F5F7F4F0E948308009759F09983888388
:1008A0001B830A832C813D81232B59F7FC01108285
:1008B000E8CF80E0E7CFCF93DF93EC018881998187
:1008C000009711F00E94FA07198218821D821C827B
:1008D0001B821A82DF91CF910895CF93DF93EC01B1
:1008E000198218821B821A821D821C8270E060E0CD
:1008F0000E943304811105C0CE01DF91CF910C9489
:100900005B041D821C826AE171E088819981DF911C
:10091000CF910C944909EF92FF920F931F93CF93BD
:10092000DF93EC018B01CB010E9404077C01BC0129
:10093000CE010E94330481110BC0CE010E945B04E2
:10094000CE01DF91CF911F910F91FF90EF9008950D
:10095000FD82EC82B801888199810E94FD06F0CF6A
:100960001F93CF93DF93E9EAF1E01382128288EEBE
:1009700093E0A0E0B0E084839583A683B7838AE008
:1009800091E09183808385EC90E09587848784EC67
:1009900090E09787868780EC90E0918B808B81EC4C
:1009A00090E0938B828B82EC90E0958B848B86EC2D
:1009B00090E0978B868B118E128E138E148E88E5A5
:1009C00092E00E946D04CEE4D2E01B8A1A8A1D8A4E
:1009D0001C8A1F8A1E8A198A188A82E792E00E945E
:1009E0006D041DA61CA61FA61EA619AA18AA1BA642
:1009F0001AA68CE892E00E946D0410929502109263
:100A000094021092970210929602109299021092FC
:100A10009802109293021092920260E083E00E948A
:100A2000020460E08AE00E94020460E08BE00E9421
:100A3000020461E084E00E94020483E088830E9453
:100A4000CF009A8389839C838B8311E01D831F824F
:100A50001E826AEE70E088E592E00E948B048AE0D4
:100A60008A8F0E94CF009C8F8B8F9E8F8D8F1F8FC0
:100A700019A218A261EE70E082E792E00E948B0456
:100A80008BE08CAB0E94CF009EAB8DAB98AF8FAB51
:100A900019AF1BAE1AAE6CEC70E08CE892E00E94CD
:100AA0008B0484E080939C0210929D0287E08093E7
:100AB0009E0210929F02E6E4F2E0138212821582F7
:100AC00014821782168211821082DF91CF911F91BA
:100AD0000895789484B5826084BD84B5816084BDB6
:100AE00085B5826085BD85B5816085BD80916E00CC
:100AF000816080936E0010928100809181008260FD
:100B00008093810080918100816080938100809139
:100B100080008160809380008091B1008460809328
:100B2000B1008091B00081608093B00080917A0024
:100B3000846080937A0080917A00826080937A004A
:100B400080917A00816080937A0080917A00806839
:100B500080937A001092C1008EE592E00E944403D7
:100B600088E792E00E94440382E992E00E944403F5
:100B70000FEB12E010936702009366026CE972E0DB
:100B80008EE592E00E948A02109381020093800217
:100B90006EE972E088E792E00E948A0210939B025D
:100BA00000939A02E091B901F091BA0182E080834A
:100BB000E091B501F091B6011082E091B701F0919A
:100BC000B80180E180831092C101E091BD01F091F4
:100BD000BE0186E08083E091BB01F091BC01808181
:100BE00080618083E091BB01F091BC0180818860CD
:100BF0008083E091BB01F091BC018081806880839B
:100C0000E091BB01F091BC0180818F7D8083C09118
:100C10004C02D0914D0284E090E00E945E079093D8
:100C20004D0280934C02892B31F46BE171E086E434
:100C300092E00E946F02E0914C02F0914D0213820B
:100C4000128280E492E09183808380914A029091A5
:100C50004B02892B09F07DC0F0934B02E0934A02CE
:100C600080914802909149020196909349028093A5
:100C7000480208E610E0F8016491662341F089EA31
:100C800091E00E9498010F5F1F4F892BA1F768E147
:100C900071E089EA91E00E944C0204E610E080E0F5
:100CA000E82E80E0F82E2FB7F8948091A50190915E
:100CB000A601A091A701B091A8012FBF40919C016E
:100CC00050919D0160919E0170919F01841B950B35
:100CD000A60BB70B0A97A105B10508F446C02FB7BC
:100CE000F8948091A5019091A601A091A701B091DF
:100CF000A8012FBF80939C0190939D01A0939E011A
:100D0000B0939F0180919A0190919B010196B80147
:100D10000E94440790939B0180939A01C0E08091C8
:100D2000480290914902C8171906FCF4E0914A0262
:100D3000F0914B02C080D18080E0309769F467E683
:100D400071E086E492E00E946F02F6010995CF5FA0
:100D5000E6CFFB83EA8384CFC817B9F30280F3811F
:100D6000E02DC080D1808F5FF7CFE114F10409F44A
:100D70009ACF0E946201882309F495CF0E94000057
:100D800092CFFC0180819181009711F00C94FA07B9
:100D900008950F931F93CF93DF93EC010C811D8176
:100DA000012B51F08C819D81FC01028113810E94F5
:100DB000FA071D830C83F4CFDF91CF911F910F9120
:100DC000089586E492E00E94C90682E992E00E94BA
:100DD000C9068CE892E00E94C10688E792E00E9472
:100DE000C90682E792E00E94C1068EE592E00E9469
:100DF000C90688E592E00C94C106FB01DC01059070
:100E00000D920020E1F70895FC0105900020E9F71C
:100E1000809590958E0F9F1F08952F923F924F922D
:100E20005F926F927F928F929F92AF92BF92CF927A
:100E3000DF92EF92FF920F931F93CF93DF93CDB783
:100E4000DEB7CA1BDB0B0FB6F894DEBF0FBECDBFFB
:100E500009942A88398848885F846E847D848C84CC
:100E60009B84AA84B984C884DF80EE80FD800C81D5
:100E70001B81AA81B981CE0FD11D0FB6F894DEBFB8
:100E80000FBECDBFED010895AA1BBB1B51E107C0EA
:100E9000AA1FBB1FA617B70710F0A61BB70B881F0A
:100EA000991F5A95A9F780959095BC01CD01089599
:100EB000EE0FFF1F0590F491E02D09940F931F93FF
:100EC000CF93DF938230910510F482E090E0E091BF
:100ED000A202F091A30230E020E0B0E0A0E0309761
:100EE00099F42115310509F44AC0281B390B243027
:100EF0003105D8F58A819B816115710589F1FB0166
:100F000093838283FE0111C040815181028113814C
:100F100048175907E0F04817590799F4109761F0FE
:100F200012960C93129713961C933296CF01DF9171
:100F3000CF911F910F9108950093A2021093A302E5
:100F4000F4CF2115310551F04217530738F0A901AC
:100F5000DB019A01BD01DF01F801C1CFEF01F9CF3B
:100F60009093A3028093A202CDCFFE01E20FF31F64
:100F7000819391932250310939832883D7CF2091CF
:100F8000A0023091A102232B41F420910201309163
:100F900003013093A1022093A0022091000130911F
:100FA00001012115310541F42DB73EB740910401EF
:100FB00050910501241B350BE091A002F091A10294
:100FC000E217F307A0F42E1B3F0B2817390778F020
:100FD000AC014E5F5F4F2417350748F04E0F5F1F7F
:100FE0005093A1024093A002819391939FCFF0E090
:100FF000E0E09CCFCF93DF930097E9F0FC013297BC
:1010000013821282A091A202B091A302ED0130E0FE
:1010100020E01097A1F420813181820F931F20914D
:10102000A0023091A1022817390709F061C0F0939E
:10103000A102E093A002DF91CF910895EA01CE17BB
:10104000DF07E8F54A815B819E0141155105B1F743
:10105000E901FB83EA8349915991C40FD51FEC172D
:10106000FD0761F4808191810296840F951FE9014B
:1010700099838883828193819B838A83F0E0E0E077
:1010800012968D919C9113970097B9F52D913C91F3
:101090001197CD010296820F931F2091A0023091EB
:1010A000A1022817390739F6309751F51092A3029B
:1010B0001092A202B093A102A093A002BCCFD3834E
:1010C000C28340815181840F951FC817D90761F4ED
:1010D0004E5F5F4F88819981480F591F518340832C
:1010E0008A819B81938382832115310509F0B0CFDA
:1010F000F093A302E093A2029ECFFD01DC01C0CFDA
:1011000013821282D7CFB0E0A0E0E9E8F8E00C94B7
:101110000F078C01009751F4CB010E945E078C01F0
:10112000C801CDB7DEB7E0E10C942B07FC01E60F58
:10113000F71F9C0122503109E217F30708F49DC004
:10114000D901CD91DC911197C617D70798F0C5301A
:10115000D10530F3CE0104978617970708F3C61B15
:10116000D70B2297C193D1936D937C93CF010E94AB
:10117000FA07D6CF5B01AC1ABD0A4C018C0E9D1E3E
:10118000A091A202B091A302512C412CF12CE12C90
:10119000109731F58091A0029091A10288159905D0
:1011A00009F05CC04616570608F058C0809100014F
:1011B00090910101009741F48DB79EB740910401D1
:1011C00050910501841B950BE817F90708F055C0ED
:1011D000F093A102E093A002F90171836083A0CF94
:1011E0008D919C91119712966C90129713967C900A
:1011F0001397A815B90559F56C0142E0C40ED11C2E
:10120000CA14DB0420F1AC014A195B09DA01129619
:10121000159780F06282738251834083D9016D9368
:101220007C93E114F10471F0D7011396FC93EE93D3
:10123000129776CF22968C0F9D1FF90191838083A0
:10124000F301EFCFF093A302E093A20269CF481617
:10125000590608F42C017D01D3019ACFCB010E94DD
:101260005E077C01009749F0AE01B8010E94400979
:10127000C8010E94FA07870153CF10E000E050CF69
:10128000FB01DC0102C001900D9241505040D8F7A3
:101290000895FB01DC0101900D920020E1F7089513
:1012A00010E0CBE7D0E004C0FE010E945807219671
:0A12B000CC37D107C9F7F894FFCF3F
:1012BA000000A4028000000000009801F800250147
:1012CA00E5015601340148010D0A005155455545BD
:1012DA003A20696E73756666696369656E74206D16
:1012EA00656D6F727920746F206372656174652011
:1012FA0061206E6577206E6F64652E00203A204962
:10130A006E746572727570746F72202D2D3E200096
:10131A004F4E004F46460051554555453A206361A8
:10132A006E2774207065656B206974656D2066721E
:10133A006F6D2071756575653A20717565756520E3
:0A134A00697320656D7074792E0040
:00000001FF
